:020000040800F2
:1000000010080020890100089101000893010008F0
:100010009501000897010008990100080000000000
:100020000000000000000000000000009B0100082C
:100030009D010008000000009F010008A1010008C8
:10004000A3010008A3010008A3010008A301000800
:10005000A3010008A3010008550200086D02000872
:1000600085020008BD020008D5020008A3010008AF
:10007000A3010008A3010008A3010008A3010008D0
:10008000A3010008A3010008A3010008A3010008C0
:10009000A3010008A3010008A30100081103000840
:1000A000A3010008A3010008A3010008A3010008A0
:1000B000051000082510000871100008A3010008B1
:1000C000A3010008A3010008A3010008A301000880
:1000D000A30100088D100008A9100008C510000831
:1000E000A3010008A3010008A301000800F002F822
:1000F00000F03AF80AA090E8000C82448344AAF188
:100100000107DA4501D100F02FF8AFF2090EBAE885
:100110000F0013F0010F18BFFB1A43F0010318473B
:100120005046000070460000103A24BF78C878C1DD
:10013000FAD8520724BF30C830C144BF04680C60ED
:10014000704700000023002400250026103A28BF35
:1001500078C1FBD8520728BF30C148BF0B60704739
:100160001FB51FBD10B510BD00F046F81146FFF7D2
:10017000F7FF01F07BFC00F064F803B4FFF7F2FF37
:1001800003BC01F039F800000948804709480047DE
:10019000FEE7FEE7FEE7FEE7FEE7FEE7FEE7FEE737
:1001A000FEE7FEE704480549054A064B7047000094
:1001B000A50F0008ED000008100200201008002024
:1001C00010040020100400207047704770477047EB
:1001D000704710B500F008F8006810BD10B504466F
:1001E00000F002F8046010BD00487047B001002024
:1001F00000487047B00100207546FFF7F9FFAE4692
:1002000005006946534620F00700854618B020B522
:10021000FFF7C8FFBDE820404FF000064FF0000791
:100220004FF000084FF0000B21F00701AC46ACE89E
:10023000C009ACE8C009ACE8C009ACE8C0098D460B
:10024000704710B50446AFF300802046BDE810406B
:10025000FFF793BF0448006800F0010010B10120CF
:100260000149086070470000140401400448006818
:1002700000F0020010B10220014908607047000040
:100280001404014010B50321002001F0EBFA28B15D
:1002900008480068401E0749086004E005480068F7
:1002A000401C0449086004200349086008460068AF
:1002B00010BD000010000020140401400448006834
:1002C00000F0080010B108200149086070470000E4
:1002D0001404014010B50C48006800F0100090B103
:1002E0000521002001F0BEFA28B108480068401C32
:1002F0000649086004E005480068401E034908609C
:1003000010200149086010BD1404014014000020B1
:100310002DE9FF5FB548006800F0200010B12020F3
:10032000B2490860B148006800F0400010B14020B8
:10033000AE490860AD48006800F0800000287CD01D
:1003400000F00CFB00F088F9A948B0F9000003F0B8
:100350002DFC019003F092FA4FF06632A54BCDE9E7
:10036000020102F08DFD8046A34AA44B02F076FF05
:1003700006460F46A248006803F080FA82463246DD
:100380003B4602F0C1FC044602F08CFC9C4908602C
:100390009C48B0F9000003F009FC019003F06EFAEC
:1003A00080464FF06632934B02F06AFD0646924A51
:1003B000924B02F053FF82468B469348006803F04D
:1003C0005DFA52465B46CDE9020102F09DFC04460F
:1003D00002F068FC8C4908608C48B0F9000003F01A
:1003E000E5FB019003F04AFA82464FF06632814BFA
:1003F00002F046FD8046804A804B02F02FFFCDE997
:1004000002018348006803F039FA0646DDE9022359
:1004100002F07AFC044602F045FC7D4908607D4804
:10042000B0F9000003F0C2FB83467B48B0F900003E
:1004300003F0BCFB5946039000E0C3E003F0B8FAB8
:10044000824603F01BFA804600F0D8FE0646734A47
:10045000734B02F003FF044602F024FC714908606C
:100460006C48B0F9000003F0A1FB83466E48B0F978
:10047000000003F09BFB5946039003F099FA824673
:1004800003F0FCF9804600F0B9FE81F00041064619
:10049000624A634B02F0E2FE044602F003FC634949
:1004A00008606148B0F9000003F080FB83465A48B9
:1004B000B0F9000003F07AFB5946039003F078FA94
:1004C000824603F0DBF9064600F098FE0446534AE4
:1004D000534B02F0C3FE804602F0E4FB544908602F
:1004E0005448B0F9000003F061FB039003F0C6F933
:1004F000804689465048B0F9000003F057FB03904E
:1005000003F0BCF9064642464B4600F087FF04461E
:10051000424A434B02F0A2FE824602F0C3FB474927
:1005200008603348B0F9000003F040FB814603F057
:10053000A5F907464FF066322E4B02F0A1FC0546A6
:1005400002F0B0FB04462246364801683C4800F001
:1005500064F93C4908602B48B0F9000003F026FB21
:10056000814603F08BF907464FF06632214B02F0CB
:1005700087FC054602F096FB044622462B4801689C
:10058000314800F04AF9314908602048B0F90000CC
:1005900003F00CFB814603F071F907464FF0663219
:1005A000144B02F06DFC054602F07CFB044622462B
:1005B00022480168264800F030F92649086080206A
:1005C0000A4908600948006800F4807018B14FF4C7
:1005D0008070064908600548006800F4007018B192
:1005E0004FF4007001490860BDE8FF9F140401400A
:1005F000DE000020666630407B14AE47E17A743F2F
:10060000E4000020E0000020E8000020E2000020DC
:10061000EC000020DC000020DA000020D9CEF753E7
:10062000E3A54C40F0000020D8000020F40000209A
:10063000F80000200A01002008010020100100201D
:1006400050000020FC00002080000020000100205D
:10065000200000200401002070B5032000F02CF8D9
:100660000446042000F028F8054645EA042000B2BC
:100670000E490880072000F01FF80446082000F00B
:100680001BF8054645EA042000B209490880052008
:1006900000F012F80446062000F00EF8054645EA80
:1006A000042000B20349088070BD0000080100204A
:1006B0000A0100200C01002070B5044600F06EF81D
:1006C0003C2000F04AF800F090F8204600F045F891
:1006D00000F08BF800F078F800F060F83D2000F0B2
:1006E0003CF800F082F800F018F8054600F004F835
:1006F00000F06AF8284670BD10B501220B211046A3
:1007000001F094F901220A21104601F08FF900222C
:100710000A21012001F08AF910BD70B500250122DF
:100720000B21104601F082F9002412E001220A2177
:10073000104601F07BF90B21012001F093F810B174
:1007400080202041054300220A21012001F06EF99A
:10075000641C082CEADB284670BD70B505460024F1
:1007600019E080202041284028B101220B211046A9
:1007700001F05CF904E000220B21012001F056F9A0
:1007800001220A21104601F051F900220A2101201C
:1007900001F04CF9641C082CE3DB70BD10B501229C
:1007A0000B21104601F042F901220A21104601F006
:1007B0003DF900220B21012001F038F900220A2125
:1007C000012001F033F910BD10B500220B210120EA
:1007D00001F02CF901220A21104601F027F901222B
:1007E0000B21104601F022F910BD10B500240122A2
:1007F0000B21104601F01AF901220A21104601F0DE
:1008000015F90B21012001F02DF8044600220A21E0
:10081000012001F00BF9204610BD2DE9F05F0446E0
:100820000D4616463046E16A03F028FB8046E16932
:1008300003F01CFA0746A16A03F04CF8A062E06AD4
:10084000E062D4E9060103F011FA8246E16903F09F
:100850000DFA8046D4E9040103F03CF88346E169CF
:1008600003F004FA8246E16803F0FDFA814641464E
:1008700003F030F80746216803F02CF8E060D4E973
:10088000060103F0F3F90746216903F0ECFA206151
:10089000D4E9060103F0EAF90746616903F0E3FAD7
:1008A00060616168A06903F015F8A061D4E90210E5
:1008B00003F010F807463946E06803F079F8206243
:1008C000D4E9021003F006F807463946606903F0E0
:1008D0006FF860622846A16A03F0D0FA8046216A68
:1008E00003F0C4F90746A16A02F0F4FFA0622846AB
:1008F000A16A03F0C3FA8046616A03F0B7F90746BC
:10090000E16A02F0E7FFE0624FF07E50216A03F0F7
:10091000B5FA0746E16803F0A9F9E0604FF07E50B0
:10092000216A03F0ABFA0746216903F09FF92061C1
:10093000616AE06803F09AF90746616903F093FA87
:100940006061616A206903F091F90746A16903F0CB
:100950008AFAA061A06ABDE8F09F000070B53B2054
:1009600000F058F804463C2000F054F8054645EAEB
:10097000042000B2214908803D2000F04BF80446D5
:100980003E2000F047F8054645EA042000B21C4925
:1009900008803F2000F03EF80446402000F03AF87E
:1009A000054645EA042000B216490880432000F0BD
:1009B00031F80446442000F02DF8054645EA0420AD
:1009C00000B211490880452000F024F80446462072
:1009D00000F020F8054645EA042000B20B490880E3
:1009E000472000F017F80446482000F013F80546A9
:1009F00045EA042000B20649088070BDD8000020F6
:100A0000DA000020DC000020DE000020E0000020F2
:100A1000E200002070B50446FFF7C0FED020FFF7CB
:100A20009CFEFFF7E2FE2046FFF797FEFFF7DDFE94
:100A3000FFF7CAFEFFF7B2FED120FFF78EFEFFF7E9
:100A4000D4FEFFF76AFE0546FFF756FEFFF7BCFE31
:100A5000284670BD014607238B431A02054B1868D0
:100A60004FF6FF0318401043034B1843014B186027
:100A7000704700000CED00E00000FA0570B5054677
:100A80000C460420FFF7E6FF0E48005D00F001066B
:100A900046EA0510C1B20B4801552046E21704EBA7
:100AA000D2625211A4EB421301229A402146E3176D
:100AB00004EBD3635B119B0003F1E023C3F8002137
:100AC00070BD000000E400E070B500240EE00021DD
:100AD000204600F0D1F8002504E0002000F0DDF908
:100AE000681CC5B2802DF8DB601CC4B2082CEEDB9C
:100AF00070BD10B502220821012000F0C5FE0222BF
:100B00000921012000F0C0FE01220821104600F05A
:100B10008DFF01220921104600F088FF10BD70B53D
:100B20000546002413E08020204100EA0502092147
:100B3000012000F07BFF01220821104600F076FF23
:100B400000220821012000F071FF601CC4B2082CB3
:100B5000E9DB01220821104600F068FF002208218D
:100B6000012000F063FF70BD10B50122092110467D
:100B700000F05CFF01220821104600F057FF002220
:100B80000921012000F052FF00220821012000F07D
:100B90004DFF10BD10B500220921012000F046FFD5
:100BA00001220821104600F041FF012209211046D0
:100BB00000F03CFF10BD70B5002406E0002500E009
:100BC0006D1CB5F57A7FFBD3641CB4F57A7FF5D341
:100BD000FFF78FFFAE2000F050F9D52000F04DF95F
:100BE000802000F04AF9A82000F047F93F2000F0EB
:100BF00044F9D32000F041F9002000F03EF94020F4
:100C000000F03BF9A12000F038F9C82000F035F9D8
:100C1000DA2000F032F9122000F02FF9812000F0E4
:100C20002CF9CF2000F029F9D92000F026F9F12085
:100C300000F023F9DB2000F020F9302000F01DF94E
:100C4000A42000F01AF9A62000F017F98D2000F07A
:100C500014F9142000F011F9AF2000F00EF9FFF79D
:100C600033FF70BD10B50246012000E050430B1E5B
:100C7000A1F10101FAD110BD70B505460C4645F051
:100C8000B00000F0FAF8102141EA141000F0F5F875
:100C900004F00F0000F0F1F870BD00002DE9F04104
:100CA00005460E461746721ED206110E6A1E5206E1
:100CB000100EFFF7E1FF002409E0A7F12001134A1D
:100CC00002EB0111085D00F0E8F8601CC4B2082CCA
:100CD000F3DB721ED206110E6A1E012303EB4202E1
:100CE000D0B2FFF7C9FF00240BE0A7F12001074AAB
:100CF00002EB011204F10801505C00F0CEF8601C18
:100D0000C4B2082CF1DBBDE8F081000056400008B9
:100D10002DE9FF4F87B00C4691469A46DDF850B05A
:100D2000484602F007FF0590584602F047FA07468A
:100D30003A460B4600201A4901F05CF805460E467B
:100D4000059802F033FF8046494603F08CF80746C9
:100D500002F094FD2A463346CDE9000102F07EFA06
:100D6000CDE9020102F0E4F9049053462146059AC8
:100D7000079800F03BF804EB0A00401CC1B209A23E
:100D8000079800F066F804EB0A00801CC1B25B46CD
:100D9000049A079800F008F80BB0BDE8F08F000047
:100DA000000024402E0000002DE9F04780460E464A
:100DB00017461D46002415E0281B411E0A20FFF798
:100DC00051FFB7FBF0F00A21B0FBF1F201FB12007A
:100DD00000F130093019C1B24A464046FFF75EFFC4
:100DE000601CC4B2AC42E7DBBDE8F0872DE9F047F8
:100DF0008146884615461E46002D06DB2B224146BD
:100E00004846FFF74BFF2F4605E02D224146484656
:100E1000FFF744FF6F42002417E0301B411E0A20F9
:100E2000FFF720FFB7FBF0F00A21B0FBF1F201FB66
:100E3000120000F1300A08EB0400401CC1B2524617
:100E40004846FFF72BFF601CC4B2B442E5DBBDE8A7
:100E5000F0872DE9F04107460E461546002407E0CD
:100E60002A5D3019C1B23846FFF718FF601CC4B2C2
:100E7000285D0028F4D1BDE8F08110B50446FFF7E5
:100E800073FE7820FFF74BFE0020FFF748FE204658
:100E9000FFF745FEFFF77EFE10BD10B50446FFF7D5
:100EA00063FE7820FFF73BFE4020FFF738FE204628
:100EB000FFF735FEFFF76EFE10BD10B500F002F82B
:100EC00010BD00000CB50020019000903348006870
:100ED00040F480303149086000BF3048006800F4B9
:100EE000003000900198401C0190009818B90198BA
:100EF000B0F5A06FF1D12948006800F4003010B1BE
:100F00000120009001E0002000900098012843D1CA
:100F10002348006840F01000214908600846006836
:100F200020F0030008600846006840F002000860F6
:100F30001A484068194948600846406848600846B1
:100F4000406840F4806048600846406820F47C10A7
:100F500048600846406840F4E81048600846006869
:100F600040F08070086000BF0C48006800F000701E
:100F70000028F9D00948406820F00300074948607C
:100F80000846406840F00200486000BF03484068DF
:100F900000F00C000828F9D10CBD00000010024040
:100FA0000020024010B51348006840F001001149CC
:100FB000086008464068104908400E4948600846E5
:100FC00000680E4908400B4908600846006820F494
:100FD000802008600846406820F4FE0048604FF416
:100FE0001F008860FFF769FF4FF000600449086048
:100FF00010BD0000001002400000FFF8FFFFF6FEE9
:1010000008ED00E04FF08040008A00F0010038B1A8
:101010004FF08040008A20F001004FF080410882AC
:101020007047000010B50D48008800F00100A0B125
:101030000B4800680B4908600B4800680B490860C2
:101040000020074908600849086000F061FE034875
:10105000008820F001000149088010BD1004004004
:101060001000002018000020140000201C000020A8
:101070000548008800F0010028B10348008820F0EE
:1010800001000149088070471008004005480088A9
:1010900000F0200028B10348008820F0200001491A
:1010A00008807047003801400548008800F02000A3
:1010B00028B10348008820F02000014908807047CB
:1010C000004400400548008800F0200028B1034893
:1010D000008820F020000149088070470048004047
:1010E000490050EAC12018BF04204A0D18BF40F043
:1010F000010040F2FF72B2EB515F08BF40F0020006
:10110000012808BF052070472DE9F0414F1E00EB74
:10111000C7010446D1E9000115461E4637F0060214
:101120000DD02A46334602F099F87F1E04EBC70320
:10113000D3E9002301F0E8FD37F00602F1D1022FD8
:1011400025D0042F13D0062F18BFBDE8F0812A4602
:10115000334602F083F8D4E90A2301F0D5FD2A468C
:10116000334602F07BF8D4E9082301F0CDFD2A468E
:10117000334602F073F8D4E9062301F0C5FD2A4690
:10118000334602F06BF8D4E9042301F0BDFD2A4692
:10119000334602F063F8D4E9022301F0B5FD2A4694
:1011A000334602F05BF8D4E90023BDE8F04101F0DA
:1011B000ABBD0000002213461046014901F060BE9D
:1011C0000000F03F012202F000BF01F09DBD0022AF
:1011D00013461046114601F053BE40F20132002082
:1011E0004FF0E04102F0F1BE024A0020110702F088
:1011F000ECBE000001FDFFFF00BF70472DE9F84F76
:1012000004460D4621F0004000917349814211DCF3
:101210007249884201DC06D12CB120462946BDE83E
:10122000F84FFFF7CFBF6E48002DCCBF6D496E4918
:10123000BDE8F88F6D49814211DD6D498142D8BF0B
:101240004FF0FF366DDD20462946FFF749FF0428A1
:1012500008BFFFF7C9FF20462946BDE8F88F65495A
:10126000654F25F00045814233DD6449814219DD37
:10127000002632464FF080432046294601F044FDC7
:1012800080468A4601222046294602F09EFE002220
:101290003B4602F009FA4246534601F0F1FD04468E
:1012A0000D463EE001260022BA463B46204629462E
:1012B00001F02AFD80460F4600225346204629466B
:1012C00002F0F2F942463B4601F0DAFD04460D46D3
:1012D00027E04B4981421BDDDFF828A102260022CE
:1012E00053462046294601F0B9FF00223B4601F053
:1012F0000BFD80460F46002253462046294602F049
:10130000D3F942463B4601F0BBFD04460D4608E0DA
:10131000032622462B4600203B4901F0B1FD04463E
:101320000D4622462B461046194601F097FF8B4684
:10133000824602460B4601F091FF074602463348BB
:1013400088460B4606217844FFF7DEFE52465B4690
:1013500001F084FF82462E488B463A4643460521DB
:101360007844FFF7D1FE3A46434601F077FF024644
:101370000B46002E504659460CDA01F0C5FC2246B9
:101380002B4601F06BFF01B022462B46BDE8F04F23
:1013900002F098B801F0B8FC22462B4601F05EFF3F
:1013A0001C4A7A4402EBC603D3E9002302F07CF91D
:1013B00022462B4602F078F9174A7A4402EBC6031C
:1013C000D3E9002302F07EF8009A002AB8BF81F02A
:1013D0000041BDE8F88F0000000010440000F07FDD
:1013E000182D4454FB21F93FFB21F9BF0000DC3FDD
:1013F0000000203E0000F33F0000F03F0000E63F09
:10140000008003400000F83F0000F0BF663300009A
:1014100024330000C23200008A3200002DE9F04D72
:101420009446CCF1000423F000464CEA0404524FE9
:1014300046EAD4749A46884621F00042BC4206D857
:10144000454240EA050442EAD474BC4204D9BDE8EE
:10145000F04D6246FFF7B9BEAAF14055A5F17F6590
:1014600055EA0C040BD0022404EAAA74434DDFF8B9
:1014700010E144EAD87452EA000B04D00CE0BDE855
:10148000F04DFFF7BBBE002C14BF012CBDE8F08D62
:10149000022C30D0032C32D056EA0C0B0AD0BE42BC
:1014A00020D1BA4209D126F0804622F0804233464C
:1014B000114617E000291ADB25E0DFF8C8B0FB442D
:1014C000002C04BFDBE90001BDE8F08D012C02BF58
:1014D000DBE9000181F00041BDE8F08D022C0AD06B
:1014E000032C0CD0BA4212D1B8F1000F0BDA23480A
:1014F0002549BDE8F08D28462449BDE8F08D2846F1
:101500007146BDE8F08D1D482149BDE8F08D921B64
:1015100012153C2AC4BF19481D490EDCBAF1000F50
:10152000BEBF12F13C0F0020014606DB624601F00F
:10153000A7FC21F00041FFF761FE002C08BFBDE8C9
:10154000F08D012C04BF81F00041BDE8F08D114AFF
:10155000114B022C07D002F0A7F82A46BDE8F04D47
:101560000A4B02F0A1B802F09FF82A46BDE8F04D00
:10157000064B01F0A7BF00000000F07F182D445477
:10158000FB2109C0A6320000FB21F9BFFB21094065
:10159000FB21F93F075C143326A6A13C00B50346A6
:1015A00003E04FF47A7000F005F8181EA3F1010370
:1015B000F7D100BD00EBC001C9004FF0E02251613E
:1015C000002191610521116100BF4FF0E0210969FF
:1015D00001F480310029F8D004214FF0E02211619C
:1015E000704710B500220121062000F011F80122F9
:1015F0000321002000F048F9002201210C2000F016
:1016000007F801220521002000F03EF910BD00007E
:101610002DE9F04704460E461746032194FBF1F0EE
:10162000C11700EB91718910A0EB810189064FEA87
:101630001168032194FBF1F0C11700EB9171C1F324
:101640008705204600F06AF83148806940F00100C3
:101650002F4988614FEAB13050F825000F2101FA77
:1016600008F188432B4941F82500032094FBF0F151
:1016700000FB114088B1032094FBF0F100FB114006
:10168000401E012101FA00F000FA08F0214951F84A
:10169000251001431F4840F82510032094FBF0F16A
:1016A000012088401C49096808431B49086066B945
:1016B000032094FBF0F101208840174908310968A4
:1016C00008431549083108600BE0032094FBF0F152
:1016D0000120884010490C31096808430E490C313B
:1016E0000860032094FBF0F004280ADC032094FB3C
:1016F000F0F0801D00F0FF0949463846FFF7BEF9BB
:1017000003E017213846FFF7B9F9BDE8F08700007C
:1017100000100240080001400004014010B50446DA
:10172000182C12D2DFE804F00C12181E242A3036CE
:101730003C42484E545A60666C72787E848A909619
:1017400001220021084600F09FF889E001220021D3
:10175000104600F099F883E001220021022000F0F9
:1017600093F87DE001221146002000F08DF877E02B
:1017700001221146104600F087F871E0012211465F
:10178000022000F081F86BE001220221002000F02D
:101790007BF865E001220221104600F075F85FE059
:1017A00001220221084600F06FF859E001220321CE
:1017B000002000F069F853E001220321104600F0F8
:1017C00063F84DE001220321022000F05DF847E0BC
:1017D00001220421002000F057F841E001220421F9
:1017E000104600F051F83BE001220421022000F0F5
:1017F0004BF835E001220521002000F045F82FE0EC
:1018000001220521104600F03FF829E001220521C0
:10181000022000F039F823E001220621002000F028
:1018200033F81DE001220621104600F02DF817E0E4
:1018300001220621022000F027F811E001220721F1
:10184000002000F021F80BE001220721104600F0F3
:101850001BF805E001220721022000F015F800BF67
:1018600000BF10BD10B50246064850F8220080683F
:1018700001248C4000EA04030BB1012010BD0020BC
:10188000FCE70000B000002070B5654CA469042599
:1018900085402C43624DAC6108295DDA614C54F8F7
:1018A000204024688E000F25B540AC435D4D55F8AF
:1018B00020502C601AB1032A01D0022A0FD1012432
:1018C000944044F003048D00AC40564D55F8205030
:1018D0002D682C43534D55F820502C609FE0012A71
:1018E00001D0042A2AD14F4C54F8204024688E009D
:1018F0000825B5402C434B4D55F820502C60012A4B
:101900000ED1484C54F82040E46801258D4024EA6B
:10191000050301248C401C43424D55F82050EC60D7
:10192000042A7CD13F4C54F82040E56801248C40C7
:10193000A5433C4C54F82040E56070E004249440FA
:101940008D00AC40374D55F820502D682C43354D57
:1019500055F820502C6062E0324C54F82040646806
:10196000A1F10805AE000F25B540AC432D4D55F84B
:1019700020506C601AB1032A01D0022A11D101242F
:10198000944044F00304A1F10805AD00AC40254D9E
:1019900055F820506D682C43224D55F820506C604E
:1019A0003DE0012A01D0042A2AD11E4C54F82040DF
:1019B0006468A1F10805AE000825B5402C43194D17
:1019C00055F820506C60012A0CD1174C2568012471
:1019D0008C4025EA040301248C401C43114D55F82A
:1019E0002050EC60042A1AD10E4C54F82040E468D0
:1019F00001258D40AC430B4D55F82050EC600EE0B6
:101A000004249440A1F10805AD00AC40054D55F803
:101A100020506D682C43034D55F820506C6070BD0C
:101A200000100240B00000200C08014030B57AB12F
:101A30000D4C54F82040E46801258D4024EA05034C
:101A400001248C401C43084D55F82050EC600AE0FE
:101A5000054C54F82040E46801258D40AC43024D0C
:101A600055F82050EC6030BDB000002008B5FFF7FD
:101A7000A2F800F081F8FFF7B4FD00224FF4E13145
:101A8000104601F0B1F800200446054630E020463B
:101A9000294600F093F81748006800F035F816481A
:101AA000006800F04DF80220032300901348012144
:101AB00002680846FFF72CF91148006802F076F832
:101AC000064602200323324601210090FFF720F949
:101AD0000C48006802F06AF80646022003233246EA
:101AE000012100901846FFF713F91420FFF756FD67
:101AF000CDE70000000000200400002004010020C9
:101B0000100000201400002010B50446A2B20021ED
:101B1000084600F069FF0948027806210020FFF717
:101B200085FF0648007808B9012000E00020024641
:101B300007210020FFF77AFF10BD00000C000020F5
:101B400010B50446A2B20121002000F04DFF094863
:101B5000027800210120FFF769FF0648007808B9E4
:101B6000012000E00020024601210846FFF75EFF49
:101B700010BD00000D00002010B54FF47A72002156
:101B8000084600F023FE002206211046FFF77CFEE7
:101B9000002207211046FFF777FE4FF47A720121E9
:101BA000002000F013FE002211460120FFF76CFE1A
:101BB000002201210846FFF767FE10BD2DE9FC5FFA
:101BC00004460D4600221D4B2046294601F046FBE7
:101BD000804600224FF0804301F052F906460F463E
:101BE0001748006801F0D3FA824632463B4601F0BE
:101BF0005BFDCDE9000101F09BFA1249086000226B
:101C00000E4B2046294601F029FB804600224FF06A
:101C1000804301F035F906460F460948006801F097
:101C2000B6FA824632463B4601F06EF8CDE9000135
:101C300001F07EFA04490860BDE8FC9F0088B340CB
:101C40000800002000000020040000202DE9F041E1
:101C50000446D4E9000102F011F9A060206B0128CC
:101C60002DD1D4E9020102F009F90546616901F0BC
:101C7000FDFF2062A168A06901F0F8FFA0624FF0AB
:101C80008040E16801F0F2FF0746A16802F0EBF83E
:101C90000646216901F01EFE0546E16901F0E6FFF6
:101CA0006062A16A206A01F015FE0646616A01F0D1
:101CB00011FE0546E16A01F00DFEE06221E0206BB5
:101CC000F8B9A168606901F0D1FF2062A168A0693C
:101CD00001F0CCFF0546A16A01F0FCFDA062D4E949
:101CE000020102F0CBF80546E16901F0BFFF606236
:101CF000A16A206A01F0EEFD0546616A01F0EAFD85
:101D0000E062E1682161A168E160BDE8F081000066
:101D100010B52548254908602548006848600846F0
:101D2000FFF794FF2348007830B12348006801F0A2
:101D30003DFF2249486006E01F480068404201F02C
:101D400035FF1E4948601E48007830B11D480068C4
:101D500001F02CFF1C49486006E01A480068404228
:101D600001F024FF18494860002013490860154914
:101D700008601248FFF76AFF1348FFF767FF0F4834
:101D800000F024F8104800F021F80C49C86A01F06E
:101D9000D1FE0446FFF7B8FE0B49C86A01F0CAFE3F
:101DA0000446FFF7CDFE10BD0000A0C17C0100205D
:101DB000040100200C00002010000020140100206D
:101DC0000D000020140000204801002010B504463A
:101DD0000749E06A02F016F801D80548E0620021E0
:101DE000E06A01F00FFF01D80020E06210BD0000A2
:101DF000005043472DE9F04D1D460C4698B017465C
:101E000021F0004123F00043002814BF4FF0010CE3
:101E10004FF0000C0CEB440CFE4A0CEB02064FEAB0
:101E2000620C66452BD33E0018BF012606EB450623
:101E30001644F94A964222D3F84A53EA070C02D0D4
:101E4000944205D148B918B000201146BDE8F08D84
:101E5000002808BF4FF0000C01D04FF0010C0CEB34
:101E6000440212F5001F0AD8002F14BF4FF0010CD6
:101E70004FF0000C0CEB450212F5001F07D918B00B
:101E80003A462B462146BDE8F04DFFF79EB90022A9
:101E9000DFF88CA3002CB8BF534526DADFF884C3E3
:101EA0006345A8BF022220DADFF870C39C451CDC22
:101EB000DFF874C30CEB235CBCF1140F08DDCCF12C
:101EC000340627FA06FC0CFA06F6BE420DD108E0ED
:101ED0005FB9CCF1140623FA06FC0CFA06F69E4212
:101EE00003D10CF00102C2F1020251EA000C19D137
:101EF000002D17DA002C18BF022A01D0012A07D0C2
:101F00000220FEF76BF918B0BDE8F04DFFF752B9AB
:101F10000220FEF763F9FFF74DF918B081F0004198
:101F2000BDE8F08DB7F1000C6CD1534525D104F11B
:101F3000804212F5801201BF00280020B74918B076
:101F400008BFBDE8F08DB548884207DC002DA1BF71
:101F50006046294618B0BDE8F08D07E0281E05DA76
:101F600080F0004118B06046BDE8F08DAF4979447B
:101F7000D1E9000118B0BDE8F08DDFF8A0C26345DB
:101F800025D1002D1FDA19B1514512D1D8B909E078
:101F9000002840F0EC82A24A214618B062F31E01EC
:101FA000BDE8F08D0020214618B060F31E01BDE8A9
:101FB000F08D08DA18B02346BDE8F04D0246002047
:101FC000614600F05DBF18B02146BDE8F08D514577
:101FD00018DAB5F1804F0DD0A5F1005CBCF1FF5CC3
:101FE00010D1B4F1000C0DDB18B06146BDE8F04D26
:101FF00000F084BD234618B00246BDE8F04D1946F6
:1020000001F02CB9060024F0004C3BD1D9B1514568
:1020100033D1002C06DD002DA1BF0020514618B0A1
:10202000BDE8F08D002C01DD002D1BDB002C13DA48
:10203000002D11DB012A4FF0000014BF78497C49C4
:1020400018B0BDE8F08D022A18BF002C0AD0012A72
:1020500008D1002C06DA0AE0002CB8BF002D11DAF6
:10206000012A04D0002018B00146BDE8F08D18B058
:1020700000204FF00041BDE8F08DA1F14050B0F1DB
:102080007F601AD0012000EBE47050EA020421D0F6
:10209000624C521E4FF0000B104304BF4FF0000B78
:1020A000644C654883427CDD644A654893421FDD89
:1020B000884217DB002D25DB37E0002C00DA4AB11F
:1020C000022A0CBF01204FF0FF3018B0BDE8F04DE0
:1020D00001F05DB80120FEF781F818B0BDE8F04DC1
:1020E000FFF775B84D4A8A4202DC002D0ADC1CE07D
:1020F000814202DA002D18DA04E0484B994220DDD3
:10210000002D12DD0220FEF769F8FFF766F805469C
:102110000E46002253465846214601F09FF818B05B
:1021200066F31E012846BDE8F08D0220FEF756F842
:10213000FFF75AF80A46214618B062F31E01BDE8BF
:10214000F08D00223046614601F0AEFA80460E4620
:102150006FF0010201F039FF4FF05532394B01F0B9
:10216000B1F94246334601F079F80022364B01F0CE
:10217000A9F982464246334604911046194601F0B9
:102180006DF85246049B01F069F88A4600904FF0C2
:10219000C0422E4B4046314601F060F82C4A2B4B92
:1021A00000E027E0CDE906015146009801F056F81D
:1021B00082460191274A284B4046314601F04EF8AD
:1021C0005246019B01F070FA82460B460246059189
:1021D000DDE9060100F098FDDDE9062300268846CA
:1021E000304601F061FA5246059B01F06BF9024658
:1021F00000F07EB90020B1F5801F07DA35223046A5
:10220000614601F0E2FE06466FF0340000EB21501B
:1022100024E00000FFFF1F00FFFF0F000000F03F61
:102220000000F07F0000404301FCFFFFF6270000A4
:102230000000F0FF0000F0BF0000E0410000F043AC
:10224000FFFFEF3F5555D53F0000E03F4715F73FF3
:10225000FE822B6544DF5DF80BAE543EA0F2FF30EA
:102260000190C1F3130040F07F6141F040510291B1
:10227000FE498842D8BF002004DDFD498142C8BF25
:10228000012001DD0D9008E000200D900198401C18
:1022900001900298A0F5801002900299F5487844C8
:1022A0000B910D9900EBC100D0E900230F9330464C
:1022B0000A920B9901F0F8F9CDE90601DDE90A214E
:1022C00030460F9B00F020FD02460B460020EA49F5
:1022D00000F0D6FD059102460B460090DDE90601AF
:1022E00000F0BCFF1490E5488A464FF0000878449F
:1022F0000299006812904FF0005040EA61010D9879
:102300000F9B01EB804000F5002109910A9A129879
:1023100001F0CAF932460B9B01F0D4F8424653460D
:1023200000F09CFF0646029140465146099B129AD6
:1023300000F094FFDDE9062301F0C4F83246029B69
:1023400001F0B2F9059B009A00F088FF0091149A01
:10235000049053461046194600F080FF0646024698
:10236000C7480B46029106217844FEF7CDFECDE921
:102370000510029B32461046194600F06FFFDDE95A
:10238000053200F06BFF059106465346404619465C
:10239000149A00F0B9FC009B049A00F05FFF3246EB
:1023A000059B00F0B1FCCDE90510424653461046AE
:1023B000194600F053FF0022B24B02910A9000F040
:1023C000A3FCDDE9053200F09FFC0E464246AD4B12
:1023D000404601F069F9029B0A9A01F065F9DDE9CE
:1023E000053201F06FF8424602910A9033461046DA
:1023F000514600F033FFCDE906015346149A029985
:102400000A9800F02BFF8A46029033464246009914
:10241000049800F023FF5346029A00F075FC8246B0
:102420000B4602460591DDE9060100F06DFCDDE991
:10243000062300208846064601F036F95246059BE1
:1024400001F040F8824609914FF060428E4B3046D1
:10245000414600F003FF049006918C4A8A4B504697
:10246000099900F0FBFE82460291894A894B304669
:10247000414600F0F3FE5246029B00F045FC864BBD
:102480007B440D9A03EBC203D3E9002300F03CFC2C
:102490000E900791019800F07AFE0591DDE9061390
:1024A00082460E9A049800F02FFC7C4A7A440D9BD9
:1024B00002EBC303D3E900230093029200F024FC53
:1024C0005246059B00F020FC0026884652463046C6
:1024D000059B01F0E9F8009B029A01F0E5F8069BE4
:1024E000049A01F0E1F8079B0E9A00F0EBFF024618
:1024F00000200B4602903846294600F0AFFE824687
:1025000001912B4638461946029A01F0CDF8324621
:10251000434600F0A3FE5246019B00F0F5FB074640
:102520008A46324643462946029800F097FE054601
:102530000E463A46534600F0E7FB594A8846914218
:1025400021DBA8EB020353EA000210D12A463346EE
:1025500001F0AAF8CDE90401524A534B38465146DE
:1025600000F0D2FBDDE9042300F076FF21D2022047
:10257000FDF734FEFEF731FE0A46214618B062F33D
:102580001E01BDE8F08D494B28F000429A4210D35D
:10259000474A08EB020353EA00027FF4C6AD2A461D
:1025A000334601F081F83A46534600F055FF7FF676
:1025B000BCAD0022019228F000403E493E4A01EBAA
:1025C0002051824223DA481C4FF4801121FA00F096
:1025D00040443A4AC0F30A517A44394BA1F2FF31E0
:1025E000CB4020EA0303C0F3130040F48010C1F194
:1025F0001401C84012680190B8F1000FBCBF4042FE
:1026000001902846314601F04FF805460E462A460D
:1026100033463846514600F077FB4FF000084246FB
:10262000284B4046059100F019FECDE90601264AE7
:10263000264B4046059900F011FE009102902A4673
:1026400033464046059901F02FF83A46534600F0CC
:1026500039FF1F4A1F4B00F001FE009B029A00F059
:1026600053FB0746884602460B4635E08E9803002A
:102670007AB60B003E2400000000F03F76240000F4
:10268000A42300000000084009C7EE3FFD033ADC28
:10269000F5015B14E02F3EBE7C22000040220000CA
:1026A00000009040FE822B654715973C00CC90407F
:1026B00000346F3F01FCFFFF0000E03F8C21000071
:1026C000FFFF0F00432EE63F396CA80C615C20BE73
:1026D000EF39FAFE422EE63FDDE9060100F014FB79
:1026E000DDE9062305460E4600F0DEFF3A46434686
:1026F00000F0E8FE0F462A46334600901046194681
:1027000000F0ACFD824602462E4888460B46052165
:102710007844FEF7F9FC5246434600F09FFD2A46F6
:10272000334600F0CFFE80468A463B462846314677
:10273000009A00F093FD3B46009A00F0E5FA0691FE
:10274000009000224FF080434046514600F0ACFF1D
:102750000F460C90424653462846314600F07EFD17
:102760003B460C9A00F08CFB069B009A00F09CFF05
:102770002A46334600F098FF0022134B00F0A2FED9
:10278000054601980E4601EB00510815002810DCA3
:1027900028463146019A01F018FCFEF7A1FC0428F6
:1027A00008BFFEF721FD28463146019A01F00DFCD5
:1027B00005460B4618B02A4658462146BDE8F04D5E
:1027C00000F04CBD2C2000000000F03F2DE9F0414E
:1027D00004460D4616462846E91705EB9171891007
:1027E000A5EB8101491CCFB25148C0690121A1402C
:1027F00008434F49C8614F4890FBF6F0401E4E49D0
:1028000051F82410888547204B4951F82410088539
:10281000284600F093F8012F06D0022F1ED0032F78
:1028200036D0042F69D14DE0434850F82400008B86
:1028300040F06000404951F8241008833E4850F8A9
:102840002400008B40F008003B4951F82410088315
:102850000020394951F8241088864EE0364850F857
:102860002400008B40F4C040334951F82410088301
:10287000314850F82400008B40F400602E4951F894
:102880002410088300202C4951F82410088734E0D4
:10289000294850F82400808B40F06000264951F808
:1028A00024108883244850F82400808B40F00800CE
:1028B000214951F82410888300201F4951F8241021
:1028C00088871AE01C4850F82400808B40F4C040F0
:1028D000194951F824108883174850F82400808B38
:1028E00040F40060144951F82410888300201249F4
:1028F00051F82410A1F8400000BF00BF0E4850F866
:102900002400008C791E8A000121914008430A4965
:1029100051F824100884084850F82400008840F03A
:102920008100054951F824100880BDE8F0810000BD
:102930000010024040420F00BC00002010B50446C9
:102940000C2C4FD2DFE804F0060C12181E242A309B
:10295000363C4248032200210846FEF795FF41E03D
:10296000032201210020FEF78FFF3BE0032202211A
:102970000020FEF789FF35E0032211460020FEF714
:1029800083FF2FE0032206210020FEF77DFF29E0D0
:10299000032207210020FEF777FF23E00322002116
:1029A0000120FEF771FF1DE0032201210846FEF71A
:1029B0006BFF17E0032206210120FEF765FF11E0FF
:1029C000032207210120FEF75FFF0BE0032208210D
:1029D0000120FEF759FF05E0032209210120FEF73F
:1029E00053FF00BF00BF10BD2DE9F84F04460D4650
:1029F00017462846E91705EB91718910A5EB81016F
:102A0000491C01F0FF084CF25030874200DB0746BA
:102A1000384850F82400868DB8F1010F09D0B8F17C
:102A2000020F1DD0B8F1030F31D0B8F1040F5DD102
:102A300044E0701C01F0BAF88346384601F0CEF845
:102A40002D49009000F0B4FF8246594601F00EF97E
:102A5000814601F08BF8274951F82410888645E01B
:102A6000701C01F0A3F80090384601F0B7F88346D7
:102A7000214900F09DFF8246009901F0F7F8814658
:102A800001F074F81B4951F8241008872EE0701CDF
:102A900001F08CF80090384601F0A0F88346164902
:102AA00000F086FF8246009901F0E0F8814601F0CF
:102AB0005DF8104951F82410888717E0701C01F068
:102AC00075F80090384601F089F883460A4900F00D
:102AD0006FFF8246009901F0C9F8814601F046F87F
:102AE000044951F82410A1F8400000BF00BFBDE820
:102AF000F88F0000BC000020005043472DE9F04152
:102B000006460F4600F0EAFC041E0D4618BF0120E1
:102B1000284320F00040C0F17F6000F1E040C00F8A
:102B20000ED0301C18BF0120384320F00040C0F107
:102B30007F6000F1E040C00F04BF0120FDF74EFBB5
:102B400020462946BDE8F0812DE9F04F89B0814645
:102B50008A46B9F1000F01D11F4C00E01F4C4FEA2B
:102B60000A1094FBF0FB584600F028FBCDE9040165
:102B7000504600F00CFB07460022194B00F06EFB9C
:102B800005460E46204601F011F8074600F076FE95
:102B90002A463346CDE9000100F072F9CDE9020181
:102BA000DDE9042300F080FDCDE9060100F07AF8AC
:102BB00008904FF08341089801F058F80890089861
:102BC00000F0D4FF00EB0B10064951F829100881E2
:102BD00009B0BDE8F08F000000A24A0400512502B0
:102BE00000003040C800002070B504460E4615466F
:102BF00034B91448806940F480401249886108E083
:102C00001048C06904F1100101228A4010430D49A7
:102C1000C861204600F01AF831462046FFF794FFBD
:102C2000094850F82400808942F22C0108430649E3
:102C300051F82410888104F12500C1B22846FDF71F
:102C40001DFF70BD00100240C800002010B50446F2
:102C500024B1012C0DD0022C21D115E00322092131
:102C60000020FEF711FE04220A210020FEF70CFED0
:102C700015E0032202210020FEF706FE04220321B4
:102C80000020FEF701FE0AE003220A210120FEF7E0
:102C9000FBFD04220B210120FEF7F6FD00BF00BF63
:102CA00010BD000021F00042A2F16052B2F5801F79
:102CB00001F0004328BFD2F17F6C0BD95FEA001C02
:102CC00043EAC20242EB507018BF704728BF20F0A1
:102CD00001007047B2F5801FBCBF184670474FEA2D
:102CE000410C1CF5001F02D2084601F086B870B5F1
:102CF00000F05EFB00000089FFF7F6BF4FF00040D8
:102D0000A0F580007047000010B591EA030F48BF9E
:102D100083F0004300F1D084841A71EB030C05D2D8
:102D2000121943EB0C03001B61EB0C01DFF824E1EB
:102D30004FEA1154A4EB135C1EEA430F18BF9EEA3E
:102D4000445F73D023EA0E03DCF1200E21EA045124
:102D500043F4801332D322FA0CFE10EB0E0023FA58
:102D60000CFE41EB0E01CCF1200E03FA0EFE10EB2F
:102D70000E0051F10001B1F5801FCCF1200E32D2CE
:102D800001EB045112FA0EF2BDE8104058BF704733
:102D9000401C38BF5FEA420218BF7047002814BFCA
:102DA00020F0010041F100014FEA410313F5001F3B
:102DB00038BF7047A1F1C04100F048BB012A43EB86
:102DC0000302ACF1200CDCF11F0E32BF4FF0000EFD
:102DD00023FA0CF310EB030041EB0451B4EB115F49
:102DE000D0D0A1EB045101F5801149085FEA300011
:102DF00001EB04510ED350F1000038BF12FA0EFE61
:102E000008D1BDE81040C9E7401C38BF5FEA420264
:102E1000CAD1C3E7BDE810404FEA410313F5001FD4
:102E200038BF7047A1F1C04100F010BB9EEA445F7B
:102E300008D011EA5E0FBDE8104004BF01F0004168
:102E400000207047BDE8104070B500F0B1FA00BF37
:102E500064FBBE3E0000E0FF02494FF0000001F0BD
:102E600082B800BF0000F87F491058BFC1F140414F
:102E70005B1058BFC3F140438B42EFF300807047B3
:102E80002DE9C04130B4DFF8A0C23CEA111418BFEC
:102E90003CEA131400F0EC8081EA03051CEA1114EB
:102EA00044EAD57418BF1CEA131500F0C780A4EBE0
:102EB00005044FF0004545EAC12145EAC32341EA34
:102EC000505143EA525304F17F74994204F500349F
:102ED0004FEAC0204FEAC22208BF904200F09C8017
:102EE0004FEA13650FF24016765D4FEA134506FB75
:102EF00005F7C7F1807706FB07F74FEAD737A7FB3F
:102F000003687642C8F58038A7FB06CE38BFA8F123
:102F1000010807FB08E64FF0000EA6FB028CE6FB5B
:102F200003CEDCF1000CCEF1004E38BFAEF1010E45
:102F3000A6FB0C584FF000074FF00005E6FB0E878C
:102F4000A1FB08C6A0FB07CE16EB0E0645F1000557
:102F5000E1FB076515F1E04E7EBFA4F580345FEA22
:102F600046066D4116F1800745F100054FEA172727
:102F70004FEA066647EA0567A6F1DE46B6F1805FCE
:102F80004FEA15251FD9384624F0010C05EBC47112
:102F9000BCF1FE6F01EB0C1102D8F0BCBDE8008162
:102FA00024425CBF01F5801E9EEAC47F02D4F0BCBF
:102FB000BDE80081244238D4F0BCA1F1C041BDE895
:102FC000004100F043BA4FEAD22242EA43524FEAAC
:102FD000D323A7FB02864FEAD02040EA415007FBEB
:102FE00003661EEA0E0F4FEAD12105FB026658BFA9
:102FF000A6EB0056B6EB00564FEA520E4EEAC37EE1
:1030000018EB0E0E56EB530EBDD518EB02085E41C1
:103010007F1C55F10005B6E74FF480154FF000070F
:103020004FF000064FF00008ADE7F0BC4FF0000095
:1030300001F1C04101F00041BDE8008111EA0C1F1F
:103040000CEA131500D00CE013EA0C1F00F02580E9
:103050004FF00000F0BC81EA030101F00041BDE83F
:103060000081F0BCBDE8004181EA030100F0EEB947
:10307000F0BCBDE8004170B500F09AF9097EFC3E55
:1030800000F007B881EA03014FF0000001F00041B1
:10309000704781EA030100F0D9B9F0BCBDE80041F6
:1030A0004FF0000021497047FFFDFBF9F7F5F4F2FE
:1030B000F0EEEDEBE9E8E6E4E3E1E0DEDDDBDAD8D3
:1030C000D7D5D4D3D1D0CFCDCCCBCAC8C7C6C5C431
:1030D000C2C1C0BFBEBDBCBBBAB9B8B7B6B5B4B348
:1030E000B2B1B0AFAEADACABAAA9A8A8A7A6A5A433
:1030F000A3A3A2A1A09F9F9E9D9C9C9B9A999998F7
:103100009797969595949393929191908F8F8E8E99
:103110008D8C8C8B8B8A8989888887878685858426
:1031200084838382828181800000FF070000F87F12
:103130004FEA41034FEA5353A3F58063D3F11E03D3
:10314000C8BFD3F1210C0CDD4FF0004242EAC1228E
:1031500042EA505232FA03FC8CEAE17CACEBE170BB
:103160007047102BC4BF0020704703F5787CBCF17A
:10317000FF3F04D06FF0004282EA2100704770B533
:1031800000F016F94992248000207047F2E710F011
:10319000004248BF4042B0FA80F310FA03F10AD06F
:1031A000C3F11D0303F580634FEA415002EB035264
:1031B00002EBD12170474FF000007047B0FA80F366
:1031C00010FA03F10AD0C3F11D0303F580634FEA3F
:1031D00041504FEA035202EBD12170474FF00000FB
:1031E0007047000051EA030C17D41CF5801F58BF2C
:1031F000BCF5801F00F10680994218BF704708BFD8
:103200009042704707D711F5801F58BF13F5801FF4
:1032100019D499427047894270471CF5801F08D520
:10322000BCF5801FF7D58B4218BF704708BF82429C
:1032300070474FF4001C1CEB410F38BF1CEB430FD1
:1032400001D28B42704770B500F0B2F89224490069
:103250004FF000514FF08053FFF706BEDFF848C132
:1032600070B51CEA111E1EBF1CEA13159EEA0C0F56
:1032700095EA0C0F00F06F8081EA030423EA4C13F7
:103280004EEAD47E21EA4C1141F4801143F48013BC
:10329000AE44A1FB024CA0FB0365AEF17F7E361964
:1032A00055EB0C05A1FB034C4CF10003A0FB021CE9
:1032B00016EB0C06654153F10003094218BF46F0B6
:1032C000010613F4007F0BD14FEA03314FEA0530BA
:1032D000340341EA155140EA16506FF003020AE048
:1032E0004FEAC3214FEAC520F40241EA555140EAB2
:1032F00056506FF0020202EB2E4201EB025585EAB6
:10330000CE710AD05FEA440C18BF24F0004450F19B
:10331000000041F1000120EAD47040F2FE7C6245D9
:1033200000D270BDA84214BF4FF080444FF040441B
:10333000002E08BF0024BEF1806FA8BFA1F1C041DC
:10334000BDE8704080F282804FF0000001F1C04182
:1033500001F0004170479EEA0C0F0CEA131518BFEC
:1033600095EA0C0F06D04FF0000081EA030E0EF034
:10337000004170BD00F01CF88900013E00F007B864
:1033800000F009B84FEA430C5FEA5C5C08D081EAC0
:10339000030100F05BB84FEA410C5FEA5C5CF6D1D8
:1033A0004FF00000014970470000FF070000F87F60
:1033B0000EF1020E2EF0030E5EF8046B364205D4B9
:1033C000012A43EB030515F5001F12D8012841EB34
:1033D000010C1CF5001F0CD80ED14FEAD17C15F55D
:1033E000001F0CEB4C0C0CF1020C08BF4CEBD37C17
:1033F00004E04FF0080C01E04FEAD37C0CEB4C05E5
:1034000026FA05F606F00706B6F1040C06D20EEB16
:10341000860CBDE870404CF0010C6047DFE80CF012
:10342000090B02024FF000414FF00000A1F500210E
:1034300070BD19461046012851EB010418BFD4F5A0
:10344000001484BF002001F0004170BD0808A0F501
:1034500000114FEA3101704753EA010C17D41CF5F3
:10346000801F58BFBCF5801F00F106808B4218BF3B
:10347000704708BF8242704707D713F5801F58BFB7
:1034800011F5801F19D48B4270479B4270471CF581
:10349000801F08D5BCF5801FF7D5994218BF70472B
:1034A00008BF904270474FF4001C1CEB430F38BF1D
:1034B0001CEB410F01D2994270470FB40CBC03BC06
:1034C000FFF7C1BE91EA030F10B581F000413FF54F
:1034D00023AC83F0004300F0EFB800002DE9F04189
:1034E00001F5801CBCF5001FC0F2C3804FEA115CDF
:1034F00021EA0C510CF1FD0C41F480115FEA5C0CE7
:103500000CF5C07C01D3400049413DA4890241EA49
:10351000905187028E0E0A0CA45D04FB04F602FB98
:1035200006F6C6F14046A4FB0662F60D46EA4226C0
:1035300006FB06F4A4FB01235242C3F1404338BF0B
:103540005B1EA6FB02420024E6FB0324D20B42EAE8
:103550004446A6FB0623A1FB02E2A3FB07E4A41852
:103560004FF0000252F10002E3FB01426442C2F15B
:10357000404E38BFAEF1010EA6FB04234FF000020F
:10358000E6FB0E32A2FB03464FF00004B61954F1DD
:103590000004E2FB0264A1FB06E6A4FB07E816EBCD
:1035A00008064FF0000858F10008E4FB0168764275
:1035B000C8F1405838BFA8F10108A2FB06E4A3FBFC
:1035C00008E52D194FF0000454F10004E2FB085403
:1035D000A1FB05E6A7FB04E818EB06084FF0000680
:1035E00056F10006E1FB048618F1200556F10006AD
:1035F000A809A8F11B08B10908F03F08B8F10A0FA3
:1036000040EA86601CD901EB0C51BDE8F08100BF97
:10361000FCF5EEE8E2DDD8D3CFCBC7C3C0BDB9B669
:10362000B4B1AEACA9A7A5A3A19F9D9B9A9896956E
:103630009392908F8D8C8B898887868584838281F5
:10364000A0FB006800FB01F208EB4208B8EB8728FA
:1036500007D5341858EB0104D5D5401C51F10001B1
:10366000D1E7341A78EB0104CDD4401E71F100018A
:10367000C9E75FEA4C0C5FEA9C5C0DD105D34FF0C3
:10368000000001F00041BDE8F081BDE8F04170B5F7
:10369000FFF78EFE6DDBFFBEBDE8F0414FF000008E
:1036A000004970470000F87F10B591EA030F48BF4A
:1036B00083F000433FF530AB841A71EB030C07D263
:1036C00012198CF0004C43EB0C03001B61EB0C0156
:1036D000DFF8A4E14FEA1154A4EB135C1EEA430F98
:1036E00018BF9EEA445F00F0B08023EA6E035242A6
:1036F00021EA0451C3EB6E0338BF5B1EDCF1200EE0
:1037000025D322FA0CFE10EB0E0043FA0CFE41EB1F
:103710000E01CCF1200E03FA0EFE10EB0E0051F15B
:103720000001CCF1200E29D412FA0EF201EB045163
:10373000BDE8104058BF7047401C1CBFB2F1004F9D
:10374000704700280CBF491C20F00100704712EBA5
:10375000020E43EB030218BF4FF0010E4EEA420285
:10376000ACF1200CDCF11E0E54D943FA0CFE10EB28
:103770000E0051F1FF31CCF11E0ED5D50EF1010E28
:1037800012FA0EFE404141EB010101EB445C5FEA9D
:103790005C5C10D910EBDE7001EB045138BFBEF158
:1037A000004FBDE8104018BF704700280CBF491CEF
:1037B00020F00100704730D24FEAD42C11F50011EF
:1037C00024F400641BD0B1FA81F20B3AA41AA41EAF
:1037D000D2F12003914030FA03F31943904001EBFA
:1037E000CC71002C01EB0451BDE81040A8BF70471C
:1037F00001F1C0414FF0000001F000417047B0FA04
:1038000080F310FA03F100D110BDE41A173C48050B
:10381000C90AE4E701EB045110BD491001EB045162
:10382000BDE810404FEA300002E04FF00001704761
:103830004A0008BF0042F8D0B2F5001F28BF704709
:1038400001F000414FF0000070479EEA445F07D04E
:1038500011EA5E0FBDE8104004BF00210020704750
:10386000BDE8104070B5FFF7A3FD00BF40DFF63E96
:1038700083F00041104670470000E0FF43004FEA2C
:10388000D30C4FEA3C0C43401FBF40070CF1605182
:1038900013F0FE4F70471CF0006F03D100200CF0B6
:1038A000004170470CF0004343EA507010B540EA05
:1038B000CC0000F05CFA00BF000000924FEA00016B
:1038C000FFF7C4BD4FF000414FF00000A1F500210B
:1038D0007047000090EA010F48BF81F0004100F1FD
:1038E000D482421A3CBF801A89184FEAD0524FF056
:1038F0007F4C1CEA410FA2EBD15318BF9CEA026F28
:1039000000F03B804FF0004C4CEA00204CEA0121D3
:1039100021FA03FC10EB0C0C1ED202F1FF325FEA1D
:103920001C2040EBC25038BF70471CF07F0F4FEA9D
:10393000400C18BFBCF17F4F38BF7047C3F1200364
:10394000994008BF20F00100BCF17F4F38BF70479D
:10395000A0F1C04000F051BA4FEA3C00000A40EB31
:10396000C25028BF1CF0FF0F4FEA400CE6D018BF32
:10397000BCF17F4F38BF7047EAE79CEA026F05D081
:1039800010EA5C0F08BF00F00040704710B500F06F
:10399000EEF900BF64FBBE3E401058BFC0F140408E
:1039A000491058BFC1F140418142EFF30080704798
:1039B0004FF47F0C1CEAD0121EBF1CEAD11392EA0E
:1039C0000C0F93EA0C0F00F0858090EA010F48BFBE
:1039D00042F4807240F4000C41F400002CF07F416E
:1039E00020F07F4000B58142A2EB03020FF2081CD9
:1039F000ACEB504EC0F100009EF800E04FEA4E0ED6
:103A000000FB0EFC38BF49004FEA2C1C02F5FA02FD
:103A10000CFB0EF34FEACE1E4FEA112C4FEAC121E8
:103A20000EEB635E42EB22420EFB0CFC4FEA1C5392
:103A300000FB03114FEA112C4FEA01310EFB0CFC85
:103A40004FEADC4C00FB0C11C14228BF09184CEBBB
:103A500003335DF804EB10EB410143EBC250B2F5C8
:103A60007C0F38BF704729D512F0F00F1CBF00F152
:103A7000C04000F0004070470081828384858687C3
:103A800088898B8C8D8E8F919293959697999A9C1D
:103A90009D9FA0A2A3A5A7A8AAACAEB0B2B3B5B78C
:103AA000B9BCBEC0C2C5C7C9CCCED1D4D7D9DCDF62
:103AB000E2E6E9ECF0F3F7FAFE0000004FEA400C12
:103AC0000CF1807CBCF17E4F28BF7047B0F1C04044
:103AD00000F093B990EA010F0CEAD11348BF42F409
:103AE0008072624538BF634507D213F47F0F16D04A
:103AF00080EA010000F00040704710B500F037F98F
:103B0000097EFC3E00F005B880EA010000F00040AC
:103B1000704780EA010000F0004000F06EB912F436
:103B20007F0F04BF0248704780EA010000F065B9CA
:103B30000000C07F41000B0ED3F19E0208D950F463
:103B400000034FEA032323FA02F048BF40427047C4
:103B500010B500F00CF900BF499224800020704796
:103B60006FF0004282EA200070470000C10DD1F1E1
:103B70009E0206DB4FEA002343F0004323FA02F0E3
:103B80007047004207D54FEA4001B1F1FE4F02D223
:103B90004FF00000704710B500F0E9F8499224801A
:103BA000002070476FEA20007047000010F00041CD
:103BB00048BF4042B0FA80F310FA03F2C3F19D030C
:103BC0000BD051EAC35101EB1220530638BF7047A6
:103BD00000F1010008BF20F001007047B0FA80F347
:103BE00010FA03F2C3F19D030AD0D90501EB1220AC
:103BF000530638BF704700F1010008BF20F00100F4
:103C00007047000050EA010C00F113801CF5000F12
:103C100058BFBCF5000F01D48842704707D710F594
:103C2000000F58BF11F5000F15D488427047894224
:103C300070471CF5000F04D5BCF5000FF7D5814285
:103C400070474FF0807C1CEB400F38BF1CEB410FDE
:103C500001D28142704710B500F089F892244900E2
:103C60004FF000504FF08051FFF796BE4FF47F0C9D
:103C70001CEAD0121EBF1CEAD11392EA0C0F93EA81
:103C80000C0F00F0478090EA010F48BF42F48072A9
:103C90004FF0004C4CEA00204CEA012102EB0302F9
:103CA000A0FB0113A2F50002002918BF43F0010395
:103CB0005B0028BF4FEA330342EB22425FEA132C3A
:103CC0004CEBC2502EBFBCEB436FB2F57C0F70477C
:103CD0004FEA036CBCF1004F08BF20F00100B2F5C1
:103CE0007C0F38BF70470BD582F0FF0212F5803F82
:103CF000C8BF704700F1C040D8BF00F00040704717
:103D000000F5000C5FEA4C0C48BF7047B0F1C040B2
:103D100000F073B890EA010F0CEAD11348BF42F4E7
:103D20008072624538BF634504D280EA010000F02A
:103D30000040704710B500F01AF800BF8900013E3E
:103D400000F007B800F009B85FEA410C5FEA1C6CAC
:103D500008D080EA010000F050B85FEA400C5FEA4A
:103D60001C6CF6D14FF00040A0F5800070470EF1BA
:103D7000020E2EF0030E5EF8044B244204D44FEAE8
:103D80004102B2F17F4F11D84FEA4003B3F17F4FA8
:103D90000CD80ED14FEAD07CB2F17F4F0CEB4C0C1B
:103DA0000CF1020C08BF4CEBD17C04E04FF0080C86
:103DB00001E04FEAD17C0CEB4C0324FA03F404F04D
:103DC0000704B4F1040C06D20EEB840CBDE81040DD
:103DD0004CF0010C6047DFE80CF0070802024FF0DE
:103DE0000040A0F5800010BD0846420018BFD2F187
:103DF000807288BF00F0004010BDFF2141EAD05022
:103E0000C005704751EA000C00F113801CF5000F4B
:103E100058BFBCF5000F01D48142704707D711F598
:103E2000000F58BF10F5000F15D48142704789422A
:103E300070471CF5000F04D5BCF5000FF7D588427C
:103E400070474FF0807C1CEB410F38BF1CEB400FDC
:103E500001D28842704780EA010081EA000180EACD
:103E60000100FFF7F8BE80F0004090EA010F7FF5F7
:103E700038AD81F0004100F008B8000090EA010F71
:103E800048BF81F000413FF52CAD421A04D882F0C2
:103E90000042A0EB020011444FEAD0524FF07F4C99
:103EA0001CEA410FA2EBD15318BF9CEA026F4AD023
:103EB0004FF0004C4CEA00204CEA012121FA03FCAF
:103EC000B0EB0C0C0FD412F0FE0F36D05FEA4C00B2
:103ED0001DD5001240EBC25038BF70471CF03F0F99
:103EE00018BF70470BE0A2F101025FEA1C2040EB13
:103EF000C25038BF70471CF07F0F18BF7047C3F126
:103F00002003994014BF401E20F001007047800834
:103F10004FEA122308BF7047B0FA80FCA2EB0C02F4
:103F2000CCF1280C60FA0CF093EA122F04BF00EBDE
:103F3000C25070474FEAC3707047130A5FEADC1043
:103F400008BF7047F6E79CEA026F04D010EA5C0FE6
:103F500008BF0020704710B5FFF709FF40DFF63EAD
:103F600081F0004070470CF00F03092B08BF0820B8
:103F700000F059800A2B0BD0082B18BF704708BFE0
:103F80001CF0400F0AD04FF000004FF000017047C6
:103F90001CF0400F18BF4FF0004070471CF0100F8E
:103FA00008D020F0704300F07F4242EAD3014FEA8C
:103FB0004370704700F0604021F07F4242EA000207
:103FC00001F07F4040EA727070474FF0FF0C4CF4F4
:103FD000E06C1CEA11531CBF9CEA030C9445C2BF61
:103FE000DA4201EB02517047002B0DD0BCF1000FFB
:103FF0000FD0002A01F00041A4BF41F0E04141F0A0
:104000007F614FF00000704701F000414FF0000069
:10401000704750EA01334FF09B0C18BF4CF0806C96
:104020007EF41AAF70471CF4801F11D01CF4E02FEF
:1040300003D06FEACC31490070474FF04050EFF3A6
:10404000008222F0704242EA000282F30088704748
:104050004FF000007047000000000000000000006A
:10406000000000000000000000F800000000000058
:1040700000333000000000100C06100C0600000099
:1040800000000000000040C07840C0784000043FBD
:1040900004043F040400007088FC0830000000188D
:1040A00020FF211E0000F008F000E01800000021B1
:1040B0001C031E211E0000F00888700000001E2155
:1040C00023241927211010160E0000000000000004
:1040D000000000000000000000E0180402000000E2
:1040E00000071820400000020418E0000000004013
:1040F000201807000000404080F08040400002028D
:10410000010F01020200000000F0000000000101A8
:10411000011F01010100000000000000000080B04C
:10412000700000000000000000000000000000011E
:104130000101010101010000000000000000003049
:1041400030000000000000000000806018040060E3
:1041500018060100000000E010080810E000000F41
:10416000102020100F00001010F8000000000020A8
:10417000203F2020000000700808088870000030F0
:104180002824222130000030088888483000001898
:10419000202020110E000000C02010F800000007B1
:1041A0000424243F240000F8088888080800001927
:1041B000212020110E0000E0108888180000000F58
:1041C000112020110E0000380808C838080000002F
:1041D000003F000000000070880808887000001C84
:1041E000222121221C0000E010080810E00000003D
:1041F000312222110F00000000C0C00000000000AA
:1042000000303000000000000080000000000000CE
:1042100080600000000000008040201008000001C5
:104220000204081020004040404040404000040488
:104230000404040404000008102040800000002052
:10424000100804020100007048080808F00000008F
:10425000003036010000C030C828E810E000071820
:10426000272423140B000000C038E0000000203C8D
:1042700023020227382008F8888888700000203F31
:10428000202020110E00C030080808083800071848
:1042900020202010080008F808080810E000203F3F
:1042A000202020100F0008F88888E8081000203F20
:1042B00020202320180008F88888E8081000203FF4
:1042C000200003000000C03008080838000007186C
:1042D0002020221E020008F808000008F808203FED
:1042E000210101213F20000808F8080800000020F3
:1042F000203F2020000000000808F8080800C080C7
:1043000080807F00000008F888C028180800203F3F
:1043100020012638200008F8080000000000203F97
:1043200020202020300008F8F800F8F80800203F8E
:10433000003F003F200008F830C00008F808203F88
:10434000200007183F00E01008080810E0000F10D8
:10435000202020100F0008F808080808F000203F6F
:10436000210101010000E01008080810E0000F180A
:10437000242438504F0008F8888888887000203F2F
:104380002000030C3020007088080808380000382E
:10439000202121221C00180808F808081800000035
:1043A000203F2000000008F808000008F808001F5F
:1043B000202020201F000878880000C8380800004E
:1043C00007380E010000F80800F80008F800033C68
:1043D0000700073C03000818688080681808203030
:1043E0002C03032C30200838C800C838080000000F
:1043F000203F2000000010080808C83808002038B6
:10440000262120201800000000FE02020200000009
:10441000007F40404000000C30C000000000000061
:1044200000010638C00000020202FE000000004049
:1044300040407F000000000004020202040000006F
:10444000000000000000000000000000000080806C
:104450008080808080800002020400000000000054
:104460000000000000000000808080800000001933
:10447000242222223F2008F8008080000000003F14
:10448000112020110E000000008080800000000E2E
:10449000112020201100000000808088F800000E0C
:1044A000112020103F200000808080800000001F2D
:1044B000222222221300008080F0888888180020A1
:1044C000203F202000000000808080808000006B62
:1044D00094949493600008F8008080800000203F4E
:1044E000210000203F20008098980000000000205C
:1044F000203F20200000000000809898000000C0AD
:104500008080807F000008F8000080808000203FCD
:1045100024022D302000000808F8000000000020D0
:10452000203F202000008080808080808000203F0D
:1045300020003F20003F8080008080800000203FDE
:10454000210000203F200000808080800000001FAC
:10455000202020201F00808000808000000080FF3D
:10456000A12020110E000000008080808000000E3D
:10457000112020A0FF80808080008080800020208B
:104580003F212000010000008080808080000033F7
:10459000242424241900008080E080800000000092
:1045A000001F202000008080000000808000001F8D
:1045B000202020103F20808080000080808000012B
:1045C0000E300806010080800080008080800F305F
:1045D0000C030C300F0000808000808080000020E1
:1045E000312E0E312000808080000080808080810C
:1045F0008E7018060100008080808080800000217D
:10460000302C2221300000000000807C02020000DB
:104610000000003F404000000000FF0000000000DC
:104620000000FF0000000002027C8000000000404B
:10463000403F0000000000060101020204040000E7
:1046400000000000000000004FBB610567ACDD3FCB
:10465000182D4454FB21E93F9BF681D20B73EF3FA9
:10466000182D4454FB21F93FE2652F227F2B7A3C21
:10467000075C143326A6813CBDCBF07A8807703CDA
:10468000075C143326A6913CC4EB98999999C9BF4D
:10469000711623FEC671BCBF6D9A74AFF2B0B3BF82
:1046A0009AFDDE522DDEADBF2F6C6A2C44B4A2BF42
:1046B0000D5555555555D53FFF8300922449C23FAE
:1046C0006E204CC5CD45B73F513DD0A0660DB13FE2
:1046D000EB0D76244B7BA93F11DA22E33AAD903FF4
:1046E000000000000000F03F000000000000F83F64
:1046F00000000000000000000000004003B8E23F9E
:10470000000000000000000006D0CF43EBFD4C3E4F
:10471000033333333333E33FFFAB6FDBB66DDB3F44
:104720004D268F515555D53F01411DA96074D13F8C
:1047300065DBC9934A86CD3FEF4E454A287ECA3F86
:104740003E5555555555C53F93BDBE166CC166BF08
:104750002CDE25AF6A56113FF16BD2C541BDBBBE01
:10476000D0A4BE726937663E000000000000000061
:1047700090470008000000201401000028010008F4
:10478000A448000814010020FC06000044010008B1
:1047900000000000000000001027000001010000E0
:1047A0000000000000000000000000000000000009
:1047B0006F12833AA69B443B0000003F0000803FFD
:1047C00000000000000000000000803FCDCC4C3D08
:1047D00000000000000000000000000000000000D9
:1047E0006F12833AA69B443B0000003F0000803FCD
:1047F00000000000000000000000803FCDCC4C3DD8
:1048000000000000000000000000000000000000A8
:104810006F12833AA69B443B0000003F0000803F9C
:1048200000000000000000000000803FCDCC4C3DA7
:104830000000000000000000000000000000000078
:1048400000080140000C0140001001400000004041
:1048500000040040000800400038014000440040CF
:1048600000480040000000000000000000000000C0
:104870000000000000000000000000000000000038
:104880000000000000000000000000000000000028
:104890000000000000000000000000000000000018
:0448A0000000000014
:04000005080000ED02
:00000001FF
